:0400000002001132B7
:03000B000200D020
:0F006A00E4F508F509F50AF50B750C4002000ED8
:03000E000200B33A
:20007900AD82AE83AFF0AA19AB1AAC1B8A828B838CF01206FA8D828E838FF01206DF0DBD11
:2000990000010E0ABA00010B8A828B838CF01206FA8D828E838FF00206DF1206077589011C
:2000B900758CFC758A18D2A9D2AFD28C1200CA80FB850C82020544C020C0E0C0F0C082C0D2
:2000D90083C007C006C005C004C003C002C001C000C0D075D000758CFC758A1874012508DD
:2000F900F508E43509F509E4350AF50AE4350BF50B7519E8751A03E4F51BF51C85088285E3
:200119000983850AF0E50B12065C85820885830985F00AF50BE5084509450A450B70020567
:1E0139000CD0D0D000D001D002D003D004D005D006D007D083D082D0F0D0E0D0203229
:20015700AE82AF83EE4F7003F5822275820122AE82AF83BE0107BF000475820122BE0207F7
:20017700BF000475820122BE0307BF000475820122BE0407BF00047582012275820122AE78
:2001970082AF83BE0005BF00028020BE0105BF0002801BBE0205BF00028016BE0305BF00AF
:2001B700028011BE0413BF0010800CD29022D2B722D2B522D2B422D2B322AE82AF83BE001E
:2001D70005BF00028020BE0105BF0002801BBE0205BF00028016BE0305BF00028011BE048C
:2001F70013BF0010800CC29022C2B722C2B522C2B422C2B322E58204F5F005F07401800267
:2002170025E0D5F0FBAE904EF59022E58204F5F005F07401800225E0D5F0FBFF74FFC39FFA
:20023700AE905EF59022AF82BF2B005003020534EF24A55003020534EF24D5FF240A83F5E8
:2002570082EF243483F583E47324343434347A8B9CADBECFE0F1021334343434343434C08B
:20027700D1E2F30415263748596A7B8C9DAEBFD0E1F20314253647586905050505050404F1
:200297000404040404040505050505050505050202020203030303030303030303030303D3
:2002B70003030404040404040490C63175F01F74A37C037D007E007F002290463E75F01F30
:2002D70074A37C077D007E007F002290420F75F00874E17C037D007E007F002290C63E750A
:2002F700F01874A37C077D007E007F002290C21F75F00F74E17C077D007E007F002290427E
:200317001075F00F74E17C077D007E007F002290C62E75F00B74E17C037D007E007F00226A
:2003370090C63175F01F74637C047D007E007F002290109F75F04274C87C077D007E007F89
:200357000022904A4C75F02174847C007D007E007F002290525175F04C74657C047D007E70
:20037700007F002290421F75F00874217C047D007E007F002290C63175F05874777C047D8A
:20039700007E007F002290CE3175F09A74637C047D007E007F002290C62E75F01874A37C12
:2003B700037D007E007F002290421075F01F74A37C077D007E007F002290D66F75F0187425
:2003D700A37C037D007E007F002290525175F01F74A37C077D007E007F002290043E75F024
:2003F7000774E17C037D007E007F002290108475F04274C87C077D007E007F002290C62EC5
:2004170075F01874637C047D007E007F002290C54475F01874637C047D007E007F002290BC
:20043700D77175F01874637C047D007E007F0022902A3175F0A274627C047D007E007F002B
:200457002290108475F0A274627C047D007E007F002290221F75F02274C27C077D007E003A
:200477007F002290E72E75F03A74A77C037D007E007F002290109F75F04274197C017D00DD
:200497007E007F002290111F75F01174A27C037D007E007F002290062E75F01374A27C03EE
:2004B7007D007E007F0022907C4275F0A9748C7C007D007E007F002290862E75F0E074E137
:2004D7007C077D007E007F002290462E75F00F74A37C037D007E007F002290108475F02291
:2004F70074C27C077D007E007F002290462E75F01774A37C037D007E007F002290862E7525
:20051700F01774A37C037D007E007F002290FFFF74FFF5F07C077D007E007F002290FFFFF8
:2005370074FFF5F07C077D007E007F0022E582FF249F500BBF7B0050068F06EE24E0FF8F04
:200557008212023D85820D85830E85F00FF5108C118D128E138F14E4F515F516C3E5159434
:2005770005E51664809480400122120636120610851582851683120196E4F517F518C3E50B
:20059700179407E51864809480505AE51775F005A4FBE5152BD39422F4FB8BF005F0A80D2C
:2005B700A90EAA0FAB10AC11AD12AE13AF148019C3EF13FFEE13FEED13FDEC13FCEB13FBAC
:2005D700EA13FAE913F9E813F8D5F0E4E85401FF60098517828518831202220517E4B51797
:2005F7009D051880990515E4B51502051602057302060A1206100206367E007F00C3EE94F8
:2006170007EF6480948050168E828F83C007C00612020CD006D0070EBE00E20F80DF227E37
:20063700007F00C3EE9405EF6480948050168E828F83C007C0061201D1D006D0070EBE0081
:05065700E20F80DF222C
:20065C00F9E519451A451B451C60777800C308E51C20E73BE51925E0F519E51A33F51AE5D3
:20067C001B33F51BE51C33F51CE5829519E583951AE5F0951BE9951C50D4C3E51C13F51C64
:20069C00E51B13F51BE51A13F51AE51913F519E5829519FCE583951AFDE5F0951BFEE995B5
:2006BC001C4007F98EF08D838C82C3E51C13F51CE51B13F51BE51A13F51AE51913F519D803
:0306DC00CEE92242
:06004000E478FFF6D8FD94
:20001E007900E94400601B7A0090071A780175A000E493F2A308B8000205A0D9F4DAF27567
:02003E00A0FF21
:1B06DF0020F71130F6138883A88220F509F6A8837583002280FEF280F5F0221A
:200046007800E84400600A790175A000E4F309D8FC7800E84400600C7900900001E4F0A3B8
:04006600D8FCD9FAEF
:0D001100758120120716E582600302000EC3
:1C06FA0020F71430F6148883A88220F507E6A88375830022E280F7E49322E0220F
:0407160075820022C6
:00000001FF
