:03000000020006F5
:08005F00E4F508F509020003B5
:030003000200A157
:10006700AD82AE83AFF0AA16AB17AC188A828B832A
:100077008CF012061A8D828E838FF01205FF0DBD4C
:1000870000010E0ABA00010B8A828B838CF01206DC
:100097001A8D828E838FF00205FF1205AA90000049
:1000A70012013190000112013190000212016C908F
:1000B7000003120131900004120131900000120177
:1000C700BD9000011201A79000021201A790000342
:1000D7001201A79000041201A79000051201A79032
:1000E70000061201A71200F180FB22AE82AF83EE59
:1000F7004F7003F5822275820122AE82AF83BE0163
:1001070007BF000475820122BE0207BF0004758283
:100117000122BE0307BF000475820122BE0407BF88
:1001270000047582012275820122AE82AF83BE0070
:1001370005BF00028020BE0105BF0002801BBE0272
:1001470005BF00028016BE0305BF00028011BE0472
:1001570013BF0010800CD29022D2B722D2B522D280
:10016700B422D2B322AE82AF83BE0005BF000280A5
:1001770020BE0105BF0002801BBE0205BF00028032
:1001870016BE0305BF00028011BE0413BF00108016
:100197000CC29022C2B722C2B522C2B422C2B32275
:1001A700E58204F5F005F07401800225E0D5F0FB47
:1001B700AE904EF59022E58204F5F005F0740180CB
:1001C7000225E0D5F0FBFF74FFC39FAE905EF5906C
:1001D70022AF82BF2B0050030204CFEF24A55003A8
:1001E7000204CFEF24D5FF240A83F582EF2434835A
:1001F700F583E473BFCFCFCFCF15263748596A7B36
:100207008C9DAECFCFCFCFCFCFCF5B6C7D8E9FB046
:10021700C1D2E3F405162738495A6B7C8D9EAFC0CF
:10022700D1E2F304040404040404040404040404ED
:100237000404040404040404040402020202020283
:10024700020202020303030303030303030303037B
:100257000303030490C63175F01F74A37C037D006C
:100267007E007F002290463E75F01F74A37C077DB9
:10027700007E007F002290420F75F00874E17C0336
:100287007D007E007F002290C63E75F01874A37C27
:10029700077D007E007F002290C21F75F00F74E17A
:1002A7007C077D007E007F002290421075F00F745E
:1002B700E17C077D007E007F002290C62E75F00B43
:1002C70074E17C037D007E007F002290C63175F0CB
:1002D7001F74637C047D007E007F002290109F7551
:1002E700F04274C87C077D007E007F0022904A4C54
:1002F70075F02174847C007D007E007F002290527F
:100307005175F04C74657C047D007E007F0022905F
:10031700421F75F00874217C047D007E007F002257
:1003270090C63175F05874777C047D007E007F009D
:100337002290CE3175F09A74637C047D007E007F35
:10034700002290C62E75F01874A37C037D007E00F2
:100357007F002290421075F01F74A37C077D007EFA
:10036700007F002290D66F75F01874A37C037D0080
:100377007E007F002290525175F01F74A37C077D89
:10038700007E007F002290043E75F00774E17C0335
:100397007D007E007F002290108475F04274C87C37
:1003A700077D007E007F002290C62E75F0187463CB
:1003B7007C047D007E007F002290C54475F0187490
:1003C700637C047D007E007F002290D77175F01852
:1003D70074637C047D007E007F0022902A3175F0D3
:1003E700A274627C047D007E007F002290108475D9
:1003F700F0A274627C047D007E007F002290221FA1
:1004070075F02274C27C077D007E007F002290E792
:100417002E75F03A74A77C037D007E007F00229042
:10042700109F75F04274197C017D007E007F0022C9
:1004370090111F75F01174A27C037D007E007F0070
:100447002290062E75F01374A27C037D007E007F38
:100457000022907C4275F0A9748C7C007D007E00A0
:100467007F002290862E75F0E074E17C077D007E88
:10047700007F002290462E75F00F74A37C037D0049
:100487007E007F002290108475F02274C27C077D65
:10049700007E007F002290462E75F01774A37C0320
:1004A7007D007E007F002290862E75F01774A37C56
:1004B700037D007E007F002290FFFF74FFF5F07C34
:1004C700077D007E007F002290FFFF74FFF5F07C20
:1004D700077D007E007F0022E582FF249F500BBF2F
:1004E7007B0050068F06EE24E0FF8F821201D8852D
:1004F700820A85830B85F00CF50D8C0E8D0F8E10FF
:100507008F11E4F512F513C3E5129405E513648022
:1005170094804001221205D91205B38512828513F2
:100527008312016CE4F514F515C3E5149407E5157A
:10053700648094805062AB147406C39B75F005A465
:10054700FBAA127404C39A2BD39422F4FB8BF005F5
:10055700F0A80AA90BAA0CAB0DAC0EAD0FAE10AFED
:10056700118019C3EF13FFEE13FEED13FDEC13FC1F
:10057700EB13FBEA13FAE913F9E813F8D5F0E4E80B
:100587005401FF60098514828515831201A705149C
:10059700E4B51495051580910512E4B5120205130B
:1005A70002050E0205AD1205B30205D97E007F00D4
:1005B700C3EE9407EF6480948050168E828F83C0B9
:1005C70007C0061201BDD006D0070EBE00E20F809D
:1005D700DF227E007F00C3EE9405EF648094805095
:1005E700168E828F83C007C006120131D006D0074E
:0805F7000EBE00E20F80DF22BE
:06003500E478FFF6D8FD9F
:100013007900E94400601B7A0090063A780175A0E4
:1000230000E493F2A308B8000205A0D9F4DAF2754C
:02003300A0FF2C
:1005FF0020F71130F6138883A88220F509F6A88317
:0B060F007583002280FEF280F5F022CF
:10003B007800E84400600A790175A000E4F309D860
:10004B00FC7800E84400600C7900900001E4F0A318
:04005B00D8FCD9FAFA
:0D000600758118120636E5826003020003C2
:10061A0020F71430F6148883A88220F507E6A88309
:10062A0075830022E280F7E49322E0227582002299
:00000001FF
