:0400000002001132B7
:03000B000203CD20
:10006A007508E8750903E4F50AF50BF50CF50D7545
:10007A000E01F50FF510F511F512F513F514F51536
:10008A00F516F517F519F51BF51C751D2B02000E53
:03000E000202BA31
:10009A00AD82AE83AFF0AA2AAB2BAC2C8A828B83BB
:1000AA008CF01209308D828E838FF01209150DBDE6
:1000BA0000010E0ABA00010B8A828B838CF01209A6
:1000CA00308D828E838FF0020915AD83120930FEBE
:1000DA00A3120930FFBE0006BF0103020236BE802A
:1000EA0006BF0103020272BE0006BF0203020246F5
:1000FA00BE4006BF0203020226BE8006BF020302FA
:10010A00025ABEC006BF0203020256BE0006BF0361
:10011A000302026EBE2006BF0303020276BE400639
:10012A00BF030302026ABE6006BF030302027EBE69
:10013A008006BF0303020232BEA006BF0303020207
:10014A004EBEC006BF030302023EBEE006BF030363
:10015A0002025EBE0006BF0403020242BE1006BFD0
:10016A00040302027ABE2006BF040302023ABE401A
:10017A0006BF0403020252BE6006BF040302026203
:10018A00BE7006BF040302024ABE8006BF04030211
:10019A00022ABE9006BF0403020282BEA006BF0462
:1001AA000302022EBEB006BF0403020286BEC006C8
:1001BA00BF040302028ABED006BF0403020266BE5F
:1001CA000006BF05030202A2BE0806BF050302021B
:1001DA009EBE1806BF050302029ABE3806BF050373
:1001EA00020296BE7806BF0503020292BE8006BFCF
:1001FA0005030202A6BEC006BF05030202AABEE0AC
:10020A0006BF05030202AEBEF006BF05030202B234
:10021A00BEF806BF050302028E0202B675824122AB
:10022A007582422275824322758244227582452252
:10023A007582462275824722758248227582492232
:10024A0075824A2275824B2275824C2275824D2212
:10025A0075824E2275824F227582502275825122F2
:10026A0075825222758253227582542275825522D2
:10027A0075825622758257227582582275825922B2
:10028A0075825A2275823022758231227582322213
:10029A00758233227582342275823522758236221E
:1002AA0075823722758238227582392275822B220D
:1002BA001208C0758901758CFC758A18D2A9D2AF4B
:1002CA00D28C752A19752B00752C4090001775F081
:1002DA004012009A1202E380FBE50A450B70030202
:1002EA00037D7401B50E028003020378C3E50A9503
:1002FA0008E50B95095020AF1B7407C39FF5F0055D
:10030A00F07401800225E0D5F0FBFF74FFC39FFF64
:10031A00AE175EF5178019AF1B7407C39FF5F0057A
:10032A00F07401800225E0D5F0FBFFAE174EF517F9
:10033A00E518FF04F518051BE4B51B02051C740536
:10034A00B51B06E4B51C028002802390001775F0E5
:10035A00401200D485821D752A19752B00752C4010
:10036A0090001775F04012009AE4F51BF51CE4F5AD
:10037A000AF50B7401B50E45C3E50C9508E50D9514
:10038A0009403AE4951B7480851CF063F08095F06F
:10039A00500C90001775F0401200D485821D752A02
:1003AA0019752B00752C4090001775F04012009AB1
:1003BA00E4F51BF51CF50AF50BF50CF50D851D8208
:1003CA000207FDC0E0C0D0758CFC758A187401253F
:1003DA000CF50CE4350DF50D7401B50E1320B221A0
:1003EA00750E00850C0A850D0BE4F50CF50D8011D0
:1003FA0030B20E750E01850C0A850D0BE4F50CF56D
:10040A000DD0D0D0E032AE82AF83EE4F7003F582CA
:10041A002275820122AE82AF83BE0107BF00047536
:10042A00820122BE0207BF000475820122BE0307B1
:10043A00BF000475820122BE0407BF000475820151
:10044A002275820122AE82AF83BE0005BF00028000
:10045A0020BE0105BF0002801BBE0205BF0002804C
:10046A0016BE0305BF00028011BE0413BF00108030
:10047A000CD29022D2B722D2B522D2B422D2B3223F
:10048A00AE82AF83BE0005BF00028020BE0105BF59
:10049A000002801BBE0205BF00028016BE0305BF14
:1004AA0000028011BE0413BF0010800CC29022C249
:1004BA00B722C2B522C2B422C2B322E58204F5F041
:1004CA0005F07401800225E0D5F0FBAE904EF59060
:1004DA0022E58204F5F005F07401800225E0D5F0EA
:1004EA00FBFF74FFC39FAE905EF59022AF82BF2BD5
:1004FA000050030207EDEF24A550030207EDEF2495
:10050A00D5FF240A83F582EF243483F583E473DD6F
:10051A00EDEDEDED33445566778899AABBCCEDED48
:10052A00EDEDEDEDED798A9BACBDCEDFF001122346
:10053A003445566778899AABBCCDDEEF00112207A5
:10054A000707070707070707070707070707070731
:10055A000707070707050505050505050506060634
:10056A000606060606060606060606060707079094
:10057A00C63175F01F74A37C037D007E007F0022C4
:10058A0090463E75F01F74A37C077D007E007F00B5
:10059A002290420F75F00874E17C037D007E007F93
:1005AA00002290C63E75F01874A37C077D007E0079
:1005BA007F002290C21F75F00F74E17C077D007ED8
:1005CA00007F002290421075F00F74E17C077D00D5
:1005DA007E007F002290C62E75F00B74E17C037DAD
:1005EA00007E007F002290C63175F01F74637C0480
:1005FA007D007E007F002290109F75F04274C87CB7
:10060A00077D007E007F0022904A4C75F021748499
:10061A007C007D007E007F002290525175F04C7460
:10062A00657C047D007E007F002290421F75F008E1
:10063A0074217C047D007E007F002290C63175F013
:10064A005874777C047D007E007F002290CE31753D
:10065A00F09A74637C047D007E007F002290C62E8F
:10066A0075F01874A37C037D007E007F00229042FF
:10067A001075F01F74A37C077D007E007F00229016
:10068A00D66F75F01874A37C037D007E007F00226C
:10069A0090525175F01F74A37C077D007E007F0085
:1006AA002290043E75F00774E17C037D007E007F92
:1006BA00002290108475F04274C87C077D007E0089
:1006CA007F002290C62E75F01874637C047D007E2C
:1006DA00007F002290C54475F01874637C047D0085
:1006EA007E007F002290D77175F01874637C047DB8
:1006FA00007E007F0022902A3175F0A274627C0489
:10070A007D007E007F002290108475F0A274627CC6
:10071A00047D007E007F002290221F75F02274C2A1
:10072A007C077D007E007F002290E72E75F03A74E8
:10073A00A77C037D007E007F002290109F75F04207
:10074A0074197C017D007E007F002290111F75F0D4
:10075A001174A27C037D007E007F002290062E7514
:10076A00F01374A27C037D007E007F0022907C42FD
:10077A0075F0A9748C7C007D007E007F0022908633
:10078A002E75F0E074E17C077D007E007F002290E8
:10079A00462E75F00F74A37C037D007E007F002235
:1007AA0090108475F02274C27C077D007E007F0061
:1007BA002290462E75F01774A37C037D007E007F7D
:1007CA00002290862E75F01774A37C037D007E00AC
:1007DA007F002290FFFF74FFF5F07C077D007E000A
:1007EA007F002290FFFF74FFF5F07C077D007E00FA
:1007FA007F0022E582FF249F500BBF7B0050068FAB
:10080A0006EE24E0FF8F821204F685821E85831F7E
:10081A0085F020F5218C228D238E248F25E4F52660
:10082A00F527C3E5269405E52764809480400122D4
:10083A001208EF1208C985268285278312044FE41D
:10084A00F528F529C3E5289407E5296480948050A2
:10085A005AE52875F005A4FBE5262BD39422F4FB70
:10086A008BF005F0A81EA91FAA20AB21AC22AD234C
:10087A00AE24AF258019C3EF13FFEE13FEED13FD6F
:10088A00EC13FCEB13FBEA13FAE913F9E813F8D5B6
:10089A00F0E4E85401FF600985288285298312045F
:1008AA00DB0528E4B5289D052980990526E4B526A7
:1008BA0002052702082C0208C31208C90208EF7EA3
:1008CA00007F00C3EE9407EF6480948050168E82F6
:1008DA008F83C007C0061204C5D006D0070EBE001B
:1008EA00E20F80DF227E007F00C3EE9405EF648072
:1008FA00948050168E828F83C007C00612048AD055
:0B090A0006D0070EBE00E20F80DF22C7
:06004000E478FFF6D8FD94
:10001E007900E94400601B7A00900950780175A0C0
:10002E0000E493F2A308B8000205A0D9F4DAF27541
:02003E00A0FF21
:1009150020F71130F6138883A88220F509F6A883FD
:0B0925007583002280FEF280F5F022B6
:100046007800E84400600A790175A000E4F309D855
:10005600FC7800E84400600C7900900001E4F0A30D
:04006600D8FCD9FAEF
:0D00110075812C12094CE582600302000E7F
:1009300020F71430F6148883A88220F507E6A883F0
:1009400075830022E280F7E49322E0227582002280
:00000001FF
